:020000040800F2
:10000000484C0020C9010008FD150008C91500086A
:10001000CB1500088D1100084D1E000800000000DF
:100020000000000000000000000000004501000882
:10003000711300080000000079010008C53E0008A7
:10004000E3010008E3010008E3010008C11800080B
:10005000E3010008E3010008A5140008E30100081B
:10006000BD140008D5140008ED140008E3010008D1
:10007000E3010008E3010008E3010008E3010008D0
:10008000E3010008E3010008E3010008E3010008C0
:10009000E3010008E3010008E3010008E3010008B0
:1000A000E3010008E3010008E3010008E3010008A0
:1000B000951A0008251B0008E3010008E301000869
:1000C000E3010008E3010008E3010008E301000880
:1000D000E30100085D1C0008E3010008E3010008DB
:1000E000E3010008E3010008E3010008E301000860
:1000F000E3010008E3010008E3010008E301000850
:10010000E3010008E3010008E3010008E30100083F
:10011000E3010008E3010008E3010008E30100082F
:10012000E3010008E3010008E3010008E30100081F
:10013000DFF80CD000F036FD00480047792C0008AD
:10014000484C00201A4B19680868B0E8F00F80F39B
:1001500009884FF0000080F311884EF00D0E7047B3
:100160000000000003480068006880F3088862B659
:1001700000DF00BF08ED00E0EFF309800C4B1A68C8
:1001800020E9F00F106008B54FF0BF0080F3118830
:1001900003F094FD4FF0000080F31188BDE80840A3
:1001A00019680868B0E8F00F80F30988704700BF4D
:1001B00080000020EFF311804FF0BF0181F3118820
:1001C000704780F31188704706488047064800470B
:1001D000FEE7FEE7FEE7FEE7FEE7FEE7FEE7FEE7F7
:1001E000FEE7FEE7451A00083101000840EA010376
:1001F0009B0703D009E008C9121F08C0042AFAD2DD
:1002000003E011F8013B00F8013B521EF9D27047A0
:10021000D2B201E000F8012B491EFBD27047002248
:10022000F6E710B513460A4604461946FFF7F0FFF5
:10023000204610BD10B5044604E00B7800F8013BE1
:1002400003B1491C521EF8D2204610BD10B5002241
:1002500000E0521C835C8C5CA34201D1002BF8D1DE
:10026000D8B2E1B2401A10BD70B50F4D00B9286880
:10027000002412E00A4602E09E4203D0521C13788A
:10028000002BF9D1DAB2224305D02BB124B10021E1
:1002900000F8011B04E00446401C0678002EE9D15A
:1002A0002860204670BD0000BC0000200FB400B5DF
:1002B0008DB010A909900B9000914FF0FF300A907B
:1002C00000200C9005480690054807906A4609A84A
:1002D0000F9900F03DFB0DB05DF814FB6D090008AF
:1002E0008B0900082DE9FF5F1D464FF0FF3BD5E964
:1002F000014691465F464FF00008A9697F1C0198AE
:100300008847296A824688470028F6D1BAF1FF3F1C
:100310000CD024F4C064002E19DD600614D5BAF1A7
:100320002B0F09D0BAF12D0F0ED103E0584604B0BF
:10033000BDE8F09F44F48064A9697F1C0198884758
:10034000761E8246002E02DDBAF1300F03D0B9F1DD
:10035000000F26D032E0A969761E44F400747F1C99
:10036000019888478246002E05DDBAF1780F06D045
:10037000BAF1580F03D0B9F1000F10D01EE0B9F157
:10038000000F02D0B9F1100F18D1A969761E24F41C
:1003900000747F1C019888478246102002E00820E4
:1003A00000E00A20814609E008FB0908A969761ED9
:1003B00044F400747F1C019888478246002E05DDB6
:1003C0004946504600F0B0FA0028EDDAE969019894
:1003D0008847A00502D46FF00100A8E7E00725D107
:1003E000600613D5600502D5C8F1000000E0404664
:1003F00029680A1D2A600968220501D5087015E0E0
:10040000220701D5088011E008600FE02868011D6F
:1004100029600068210502D580F8008006E02107E8
:1004200002D5A0F8008001E0C0F8008038467EE7E1
:1004300070B5064601F030FD046805460A22002129
:10044000304600F0B3FA2C6070BD80EA010210B5AE
:1004500002F00043400022D04A001FD0010E01EB01
:100460001261C0F35600C2F3560240F4000042F499
:100470000002A0FB022000047F39140400D0401CBD
:1004800050EA124001D44000491EC2B20C0604EBEF
:10049000D010401C4008802A02D003E0002010BD8C
:1004A00020F00100002900DA0020184310BD4200AE
:1004B00005D0C0F3C7525242914201DC0020704780
:1004C00000EBC15070472DE9FE4F804681EA0300E2
:1004D000C00F0C46009021F0004123F00045B8EB1E
:1004E0000200A94105D24046214690461C460B46D3
:1004F000024623F00040104347D0270DC7F30A00FF
:10050000C3F30A510290401A019040286BDAC3F3FA
:10051000130040F4801B0098924620B10023D2EBD8
:10052000030A63EB0B0B01985946C0F14002504699
:1005300000F0D9F906460D4650465946019A00F09A
:10054000E1F910EB08006141002487EA115284EAC6
:10055000E7731A4340D0009A62B3019A012A4FEA26
:10056000075215DC001B61EB02014FF0004202EA6A
:100570000752CDE90042001C41F5801132462B465E
:1005800000F092FA03B0BDE8F08F40462146F9E74B
:10059000001B61EB0201001C41F5801300185B4158
:1005A0002018A2F5001747EB030140EAD570B619F1
:1005B0006D4111E06D084FEA360645EAC0754FEA15
:1005C0000752001B61EB0201001C41F58011490834
:1005D0004FEA30000019514132462B4603B0BDE8C6
:1005E000F04F00F052BA0098012240000023D0EBF7
:1005F000020263EBE073009821464FEAE074B8EB27
:10060000000061EB0401E9E783F000435BE781F060
:10061000004158E72DE9FE4F81EA030404F000444D
:1006200021F0004100944FF0000B23F0004350EA0A
:1006300001045ED052EA03045BD0C3F30A54C1F351
:100640000A552C44A4F2F3340194A0FB0254C1F3E4
:10065000130141F48011C3F3130343F4801301FB2E
:10066000024400FB034E840A970A44EA815447EA95
:100670008357A4FB076802958D0A05FB07854FEA9F
:10068000932C04FB0C542705029D4FEA065847EAB9
:100690001637B5EB08056EEB070C870E920E47EA8E
:1006A000811742EA8312A7FB0201B6EB0B0164EB50
:1006B00000042B0D43EA0C335E1844EB1C50DA4661
:1006C0005146E7FB0201C5F313044FEA0B3343EA3B
:1006D00014534FEA0432019C43EA0603A4F10C04CC
:1006E0000294009CCDE900B400F0DEF903B0BDE84F
:1006F000F08F00200146F9E72DE9F04D81EA03046F
:1007000004F0004B21F0004514464FF0000A23F09E
:10071000004150EA050220D054EA01021DD0C5F381
:100720000A570246C5F31303C1F31300C1F30A5677
:1007300040F4801543F48013A7EB0608101BD6463F
:1007400008F2FD3873EB050002D308F1010801E05F
:1007500092185B41B8F1000F03DA00200146BDE8B2
:10076000F08D00204FF48011064684460EE0171BE2
:1007700073EB050705D3121B63EB050306434CEA35
:10078000010C49084FEA300092185B4150EA01071A
:10079000EDD152EA030012D082EA040083EA050197
:1007A000084305D0101BAB4106D20122002306E00E
:1007B00000224FF0004302E06FF0010253101AEBE9
:1007C00006004CEB085110EB0A0041EB0B01BDE8B1
:1007D000F04D00F05AB996230022114600F027B9D7
:1007E0000EB540F2334102910021CDE900110A46D5
:1007F0000B4600F059F903B000BD00F0004230F0A4
:1008000000400AD0C10D01F56071C0F3160042EA44
:100810000151C2084007114370470020014670474C
:1008200001F0004330B421F0004150EA010206D04B
:100830000A0DA2F56072C1F31301002A02DC30BC7C
:1008400000207047440F44EAC104C100E01830BCE6
:1008500000EBC25000F0E2B830B50B460146002074
:100860002022012409E021FA02F59D4205D303FA72
:1008700002F5491B04FA02F52844151EA2F10102F3
:10088000F1DC30BD2DE9F05F0546002092469B4625
:1008900088460646814640241BE028464146474696
:1008A000224600F091F953465A46C01A914110D39E
:1008B00011461846224600F016F82D1A67EB01087B
:1008C0004F4622460120002100F00DF817EB0009E9
:1008D0004E41201EA4F10104DFDC484631462A4681
:1008E0004346BDE8F09F202A04DB203A00FA02F1DB
:1008F000002070479140C2F1200320FA03F319430E
:1009000090407047202A06DBCB17203A41FA02F0CC
:1009100043EAE07306E041FA02F3D040C2F120025C
:1009200091400843194670473A2800D2303820F0E9
:100930002002412A01D3A2F13700884201D34FF0AF
:10094000FF30704702681144137801601846704701
:10095000D1600449516104491162002111611146BD
:1009600000F050B945090008F10B0008426842B197
:10097000016811F8013B23B1521EC0E9001218466C
:1009800070470121C160881E704742685AB1C36830
:10099000016843B983688B4205D0491E521CC0E9E7
:1009A0000012002070474FF0FF3070472DE9F047EC
:1009B00091460F4680460446002614F8015B2DB18F
:1009C00000F012F90068405DC007F6D12B2D02D06F
:1009D0002D2D18D0641E4A463946204600F0A8FA4C
:1009E00027B13968A14201D1C7F8008071054FF0E5
:1009F00002040BD54042002803DD01F04DFA0460EB
:100A0000A007BDE8F08746F48066E4E70028F8DA3E
:100A100001F042FA04606FF00040F2E70029A8BF3D
:100A20007047401C490008BF20F00100704710B417
:100A3000B0FA80FC00FA0CF050EA010404BF10BCCC
:100A4000704749B1CCF1200421FA04F411FA0CF1F9
:100A500018BF012121430843A3EB0C01CB1D4FEA32
:100A600000614FEA102042BF002010BC704700EB2D
:100A7000C35010440029A4BF10BC7047401C49005B
:100A800008BF20F0010010BC704710B5141E73F1B0
:100A9000000408DA401C41F1000192185B411A433E
:100AA00001D120F0010010BD2DE9F04D92469B468A
:100AB00011B1B1FA81F202E0B0FA80F22032904630
:100AC000FFF711FF04460F4640EA0A0041EA0B0116
:100AD00053465A46084313D0114653EA010019D031
:100AE000C8F14002504600F06FF805460E465046E9
:100AF00059464246FFF7F7FE084305D0012004E0BF
:100B000020463946BDE8F08D0020054346EAE076F0
:100B10002C4337430A986305E40AA0EB080000223F
:100B2000FD0A44EA47540A3002D500200146E9E7AD
:100B3000010510196941DDE9084500196941BDE861
:100B4000F04DA2E7C1F30A52C1F3130140F2FF33A3
:100B500041F480119A4202DA00200146704740F2C7
:100B600033439A42A2F2334202DC524200F02CB8E4
:100B7000FFF7B9BE30B5041E71F1000404DB4FF07D
:100B80000044404264EB0101141E73F1000405DBD4
:100B90001C464FF00043524263EB0403994208BFE6
:100BA000904230BD064C074D06E0E06840F001037E
:100BB00094E8070098471034AC42F6D3FFF7BCFA2C
:100BC0000049000820490008202A04DB203A21FAC5
:100BD00002F00021704721FA02F3D040C2F1200256
:100BE0009140084319467047004870474046000846
:100BF00010B50446FFF7F8FF0068005D00F0010043
:100C000010BD00002DE9F34F8BB04FF0000801F14B
:100C10000C000C464FF0010B46460DF1080A0190FE
:100C20006269012101989047051E2DD0252D2CD0F9
:100C3000216A8847C0B16269012101989047216A01
:100C400088470028F7D1411E62690198904700E06B
:100C5000761CA1690B988847216A88470028F7D13C
:100C6000E1690B988847DBE7A1690B98884707463D
:100C7000A84201D1761CD3E7E1690B9888477F1C15
:100C800002D1B8F1000F6FD046E1002762693D46FE
:100C90003946019890472A2804D1626901210198B8
:100CA00090470125DFF884926269012101989047FD
:100CB000A0F130010A290AD24F45E5DC07EB870194
:100CC00000EB4107303FDFD445F01005ECE7E906C3
:100CD00001D46FF000476C280AD04C2814D0682843
:100CE00015D06A280DD074281CD07A281AD01DE09F
:100CF00062690121019890476C2802D045F00405F3
:100D000014E045F002050DE045F020050AE06269B7
:100D1000012101989047682802D045F0080505E0B8
:100D200045F400656269012101989047C4E90157C3
:100D300065283DD019DC58287AD00CDC452837D0FE
:100D400004DC252826D0412831D131E046282FD097
:100D500047282CD12CE05B2877D0612828D0632845
:100D60007CD0642823D15AE0D0E06F2848D008DC3A
:100D700066281DD067281BD0692821D06E2816D17F
:100D800027E0702845D0732868D0752847D0782888
:100D90000DD14DE0A1690B988847054625283FF401
:100DA00069AFE1690B9888476D1C3FF46AAFB3E007
:100DB00023466A466FF001000B99AFF300809EE076
:100DC00045F040006060A80723464FF0000236D48B
:100DD0003EE0E8077FF447AF2068011D216000680E
:100DE000290501D506701BE7290701D5068017E7FD
:100DF000A90703D5F117C0E9006111E706600FE705
:100E000045F040006060A80723464FF0080216D462
:100E10001EE040F60E0125EA0100606016E045F094
:100E200040006060A80723464FF00A0207D40FE095
:100E300045F040006060A80708D5234610226FF0F7
:100E400001000B99AFF3008059E007E02346102220
:100E50006FF001000B99FFF745FA50E04FF00009E1
:100E60004F464B46632802D05B2806D040E0E80698
:100E700001D40120A06001273AE0626901210198B4
:100E800090475E2805D14FF00109626949460198F3
:100E90009047216939B900210A46534643F8212079
:100EA000491C0829FADBB0B3216969B9C11700EB05
:100EB000D16253110AEB830122F01F02821A012032
:100EC0000B68904003430B606269012101989047D1
:100ED0005D28E8D1B9F1000F09D00020514651F842
:100EE0002020D24341F82020401C0828F7DB02AB29
:100EF000224600976FF001000B99AFF300800028A5
:100F00000CDA401C08D1BBF1000F05D04FF0FF30C8
:100F10000DB0BDE8F08FFFE74046F9E7E90701D1E2
:100F200008F1010806444FF0000B79E6CCCCCC0C5C
:100F30002DE9F05F82460078002715468B460AF1BE
:100F40000104B946302801D09DB113E014F8010B1B
:100F50000127782803D0582801D045B10AE00DB107
:100F6000102D07D10027102514F8010B02E00825E9
:100F700000E00A250026B0460EE005FB080005FB50
:100F800006F1012701EB10461FFA80F8B6F5803F05
:100F900000D3B94614F8010B2946FFF7C5FC002819
:100FA000EBDABBF1000F05D00FB1641E00E0544630
:100FB000CBF80040B9F1000F06D000F06DFF022120
:100FC0000160C81EBDE8F09F48EA0640FAE7002924
:100FD000816802D041F0010101E021F0010181604E
:100FE000704700000D4910B5884202D10121441517
:100FF0000AE00B49884202D10121041504E00949A5
:1010000088420AD10121CC03204600F0A1FB2046F2
:10101000BDE81040002100F09BBB10BD0024014042
:1010200000280140003C0140014600208968490732
:1010300000D501207047C06C80B270470246002086
:1010400012680A4200D001207047014600208968DA
:10105000090700D50120704710B542680E4B0C7986
:101060001A400B6842EA04221343436083680B4A28
:101070001340D1E9024222434C7943EA44031A4324
:101080008260C26A097C22F47002491EC9B242EA37
:101090000151C16210BD0000FFFEF0FFFDF7F1FF3E
:1010A00070B5072409290AD9C568A1F10A0606EB1B
:1010B0004606B440A543B3401D43C56007E005693B
:1010C00001EB4106B440A543B3401D4305611F2316
:1010D000072A09D2446B521E02EB820293409C43C2
:1010E00091400C43446370BD0D2A09D2046BD21F9A
:1010F00002EB820293409C4391400C43046370BD19
:10110000C46A0D3A02EB820293409C4391400C4327
:10111000C46270BD816841F0080181607047002998
:10112000816802D041F4A00101E021F4A0018160B6
:101130007047816841F004018160704705490028CB
:10114000086802D040F4000001E020F400000860CC
:10115000704700000824014010B5012000F004FB96
:10116000BDE81040002000F0FFBA000008B50249B9
:1011700008440090008808BD006C004008B5024A91
:1011800010440090016008BD006C0040FEE70000C4
:101190002DE9F843089C15460F468046002B4FD09A
:1011A000206800284CD00178002949D05E1E2AA171
:1011B000FFF74CF858B129A12068FFF747F830B184
:1011C00028A12068FFF742F838B127680DE02A46C9
:1011D0003946404600F0FAF832E00120BDE8F883D5
:1011E0003946FFF733F820B11435A8680028F7D145
:1011F00009E0AA683AB135B16868411C07D0B0422D
:101200000AD0EB6825E0414618A022681CE02A6855
:10121000211D3046904713E02E689EB16069241D61
:10122000009094E80F00B047034601280FD01648FD
:10123000006828B123B1414614A0AA6800F008FE56
:101240000020CBE7414619A000F002FEF8E7D5E9FF
:10125000022341461EA0F1E73F00000068656C7064
:10126000000000007175697400000000257320758E
:101270006E6B6E6F776E20636F6D6D616E643A207A
:10128000272573270D0A00005C00002025732045E8
:1012900072726F7220657865637574696E67202756
:1012A00025732720282564290D0A00002573206353
:1012B0006F6D6D616E6420272573272066756E63E0
:1012C00074696F6E206D697373696E670D0A000033
:1012D00025732073796E7461783A20272573202551
:1012E00073270D0A000000002DE9F84317468846D1
:1012F0000646024617A11A4800F0BAFD19491848D7
:1013000001F0ACFB1748002000BF15488021803851
:1013100001F026FA124814A18038A0F12805002413
:1013200005E000BF45F824000FA10020641CFEF773
:101330009BFF08B10A2CF5DB231EDFDD08483A4687
:10134000A838009041463046FFF722FF0128D5D14A
:10135000BDE8F8830D0A5B25735D3E2000000000A8
:10136000FC01002038000020202C090D0A0000009C
:101370007047000070B515460A7832B10A4601463A
:101380000CA000F065FD044609E001460BA000F04A
:101390005FFDF8E70A492E2001F0B8FD641C282CF7
:1013A000F8DB0748002000BF2946BDE8704005A0D3
:1013B00000F04EBD2573202573200000257320000A
:1013C000380000202025730D0A00000070B5054686
:1013D00014461E490D2001F099FD1C490A2001F018
:1013E00095FD29461AA000F033FD451E02E02D2090
:1013F00001F08CFD15496D1EF9D20D2001F086FD1E
:1014000012490A2001F082FD17A21CA11CA0FFF7BF
:10141000B1FF15A219A11BA0FFF7ACFF1BA217A1DA
:101420001EA0FFF7A7FF04E0D4E90312FFF7A2FF15
:101430001434A0680028F7D104490D2001F066FD9E
:10144000BDE8704001490A2001F060BD380000206D
:10145000257320436F6E736F6C6520436F6D6D61F4
:101460006E64730D0A0000004C697374206D656E24
:101470007520636F6D6D616E647300000000000085
:101480003F00000068656C700000000045786974DA
:101490002074686973206D656E75000071756974DC
:1014A0000000000010B50121034800F082F8BDE8FB
:1014B0001040012000F026B80008014010B50421BA
:1014C000034800F076F8BDE81040042000F01AB898
:1014D0000018014010B50821034800F06AF8BDE883
:1014E0001040082000F00EB80018014010B510217F
:1014F000034800F05EF8BDE81040102000F002B88C
:1015000000180140014908607047000014040140C0
:10151000F0B5CA78002502F00F03D20601D58A780B
:1015200013430A784FF00F0E12F0FF0F4FF0010235
:101530001CD004680F8802FA05F63740B74211D173
:101540004FEA850C0EFA0CF724EA070703FA0CF4AD
:101550003C43CF78282F02D0482F02D002E04661CA
:1015600000E006616D1C082DE4D304600C88FF2C9C
:101570001ED944685FF0000606F1080702FA07F575
:101580000F882F40AF420FD14FEA860C0EFA0CF7AE
:10159000BC4303FA0CF73C43CF78282F00D14561B8
:1015A000CF78482F00D10561761C082EE4D3446023
:1015B000F0BD0246002092680A4200D00120704728
:1015C0004161704701617047FEE7FEE70C46054642
:1015D000224600212846FFF787FEF9E708B5002AD2
:1015E00006DD009313460A460121FFF7D1FD08BD31
:1015F0000A46BDE808400121FFF776BE704738B5BE
:101600001B208DF8000000248DF801408DF8024069
:1016100001258DF80350684600F02AF812208DF855
:1016200000008DF801408DF802408DF803506846A7
:1016300000F01EF80B208DF800008DF801408DF8A9
:1016400002408DF803504FF4407000F043F825201D
:101650008DF800008DF801408DF802408DF80350A0
:10166000684600F005F80121084600F065F838BD2D
:1016700070B50F23C47801780122F4B1144C2468AA
:10168000457804F4E064C4F5E064240AC4F1040677
:10169000E3408478B5401C402C4301F1E021230154
:1016A00081F80034007800F01F018A404009800072
:1016B00000F1E020C0F8002170BD01F01F00824061
:1016C0004809800000F1E020C0F8802170BD0000D2
:1016D0000CED00E002490843024908607047000031
:1016E0000000FA050CED00E00149086270470000B7
:1016F00000000E42034A516821F440410143516009
:101700007047000000100240044A0029D16901D04E
:10171000014300E08143D1617047000000100240A6
:10172000044A0029116901D0014300E0814311619D
:101730007047000000100240044A0029916901D05E
:10174000014300E0814391617047000000100240B6
:10175000044A0029D16801D0014300E08143D160EF
:101760007047000000100240014908607047000007
:101770004004424230B51F494A6812F00C031E4A29
:1017800003D0042B01D0082B21D002604A680F231C
:101790001A4C03EA1212A35C0268DA4042604B68FA
:1017A000072505EA1323E35C22FA03F383604B6801
:1017B00005EAD323E35CDA40C2604968032303EA05
:1017C0009131231F595CB2FBF1F1016130BD4A68D0
:1017D0004B6802F470124FF0020413F4803F04EBE4
:1017E000924202D04B689B0301D5054B00E0024BAF
:1017F0005A43CAE70010024000127A000400002099
:1018000000093D000246002053090949012B0BD075
:10181000022B0BD0D1F8241002F01F0201239340B9
:101820000B4200D0012070470968F5E7096AF3E729
:10183000001002400649002281F8202081F8202073
:10184000012802D0042802D1052081F82000704729
:101850000010024001490860704700003C04424209
:1018600002490A6A02430A627047000000100240FF
:1018700002490A8882430A80704700000428004019
:101880000248018841F0100101807047042800409F
:101890000248018821F010010180704704280040AF
:1018A00006490988C2B21140044A121F1288024236
:1018B00002D009B101207047002070470428004081
:1018C00010B50120FFF7ECFF08B101F065FE022022
:1018D000FFF7E6FF10B10220FFF7CAFF0520FFF770
:1018E000C7FFBDE8104000F02DB80000044A0029F1
:1018F000118801D0014300E081431180704700004E
:101900000028004000B50246FFF7BAFF0449100C5A
:101910000880081D02805DF804EBFFF7B9BF0000E6
:101920001828004000B50246FFF7AAFF0449C2F399
:1019300003400880081D02805DF804EBFFF7A8BF94
:1019400008280040024801888906FCD5704700003D
:10195000042800400448018821F008010180018822
:101960000907FCD57047000004280040024600200B
:1019700012890A4200D00120704780897047818116
:10198000704700000CB500212648019100910268C3
:1019900042F4803202604FF4A063026802F4003225
:1019A0000092019A521C0192009A12B9019A9A422D
:1019B000F3D10268920333D5012100911A490A68D4
:1019C00042F010020A600A6822F003020A600A6804
:1019D00042F002020A60416841604168416041682A
:1019E00041F480614160416821F47C1141604168AB
:1019F00041F4E8114160016841F0807101600168C3
:101A00008901FCD5416821F003014160416841F042
:101A1000020141604168C1F381010229FAD10CBD84
:101A200000910CBD00100240002002404FF0E02168
:101A30000428086903D020F004000861704740F0D2
:101A40000400FAE70F4810B5016841F00101016098
:101A500041680D4A1140416001680C4A1140016023
:101A6000016821F480210160416821F4FE01416098
:101A70004FF41F018160FFF785FF05494FF00060BB
:101A8000086010BD001002400000FFF8FFFFF6FEE6
:101A900008ED00E010B501218C07204600F06BF83E
:101AA00000280BD00121204600F058F80548D0F856
:101AB000981121B15FF00001C0F8981110BD01210B
:101AC000FAE70000000021427FB50C4605460121DF
:101AD0000846FFF719FEADF80450ADF800400024A9
:101AE0004FF08045ADF80640ADF802406946284603
:101AF00000F058F801221146284600F048F81C2052
:101B00008DF80C008DF80D4003208DF80E0001209B
:101B10008DF80F0003A8FFF7ABFD0121284600F068
:101B200020F87FBD10B50B4C0121204600F023F8B2
:101B300000280BD00121204600F010F80648D0F80C
:101B40009C1121B15FF00001C0F89C1110BD012172
:101B5000FAE700000004004000002142C94301826E
:101B600070470029018802D041F0010101E021F015
:101B700001010180704702460020138A92890B42BE
:101B800002EA010202D0002A00D001207047002A98
:101B9000828901D00A4300E08A438281704701872D
:101BA0007047000030B502881B4B1C4C98420DD08A
:101BB000A0420BD0B0F1804F08D0194DA84205D0FB
:101BC000184DA84202D0184DA84203D122F070054A
:101BD0004A882A43154DA84206D0154DA84203D085
:101BE00022F44075CA882A4302808A8882850A883E
:101BF000028598420AD0A04208D00E4A904205D0F1
:101C00000D4A904202D00D4A904201D1097A0186D4
:101C10000121818230BD0000002C014000340140D0
:101C20000004004000080040000C0040001000408C
:101C300000140040004001400044014000480140C1
:101C4000044D4FF0FF34002322460349686802F038
:101C50006AF9F8E740000020EE00002010B5094CBA
:101C600040F22551204600F05CF8002808D02046BC
:101C700000F0E4F8C1B2BDE81040034800F0A0BE97
:101C800010BD000000380140C400002000298189F7
:101C900002D041F4005101E021F4005181817047EC
:101CA000174910B588420AD101218C032046FFF75D
:101CB0004FFD2046BDE810400021FFF749BD114906
:101CC000884202D101214C0410E00F49884202D120
:101CD00001218C040AE00D49884202D10121CC0483
:101CE00004E00B4988420AD101210C052046FFF788
:101CF00017FD2046BDE810400021FFF711BD10BDC3
:101D0000003801400044004000480040004C0040C2
:101D1000005000400246002012880A4200D00120F4
:101D2000704730B501F01F0201240025C1F34213B2
:101D300004FA02F2012B0FD0022B0FD0838A4FEA54
:101D400011210088134204FA01F400EA040001D0D2
:101D500000B10125284630BD8389F0E7038AEEE70C
:101D600010B5C1F3421301F01F040121A140012B62
:101D700007D0022B07D01430002A026805D00A438E
:101D800004E00C30F8E71030F6E78A43026010BD3B
:101D900030B50446008A85B00D464CF6FF71084008
:101DA000E98801432182A1894EF6F3100140A888F9
:101DB0002A8910436A890A431043A081A08A4FF6FA
:101DC000FF410840A9890143A1826846FFF7D2FC80
:101DD0001948844201D1039800E00298A1890904BE
:101DE00000EBC00101EB0010296801D5490000E0BB
:101DF0008900B0FBF1F06422B0FBF2F109010B099C
:101E00006FF018056B4300EB8300A3891D044FF0AE
:101E1000320306D503EBC000B0FBF2F000F0070080
:101E200005E003EB0010B0FBF2F000F00F000843F8
:101E3000208105B030BD0000003801408088C0F32B
:101E400008007047C1F3080181807047FEE7000079
:101E50000FB4054B10B503A9044A029800F0E2F84C
:101E600010BC5DF814FB0000392A0008380000207F
:101E70000FB4084B10B504A902AA039800F0D2F8D9
:101E8000044602A9002000F064FC204610BC5DF866
:101E900014FB00005327000800487047C0000020D2
:101EA00002E008C8121F08C1002AFAD17047704723
:101EB000002001E001C1121F002AFBD17047000081
:101EC0002DE9FF5FDDE90220010DDDF838B00243A6
:101ED00018D044F61050A1F2FF3141430D140F9871
:101EE000012820D0A5EB0B00401C5FEA000A4FF050
:101EF0000004474EDFF81C91A046504616D5CAF1A3
:101F0000000728E00F98012443A2012808D00021EF
:101F100000980F9BC0E90021C0E90243BDE8FF9F84
:101F20006FEA0B01F4E7CBF10000DEE7074612E0B1
:101F3000F80707D02246334640464946FEF76AFB7B
:101F4000804689462246334610461946FEF762FB14
:101F500004460E467F10002FEAD1DDE90201BAF1F6
:101F6000000F42464B4602DAFEF754FB01E0FEF753
:101F7000C3FB04460E460022284BFEF7FBFD03D8A8
:101F80004FF0FF30014607E00022254B2046314646
:101F9000FEF799FAFEF7D6FD102409E0002C0ADBC3
:101FA0000A220023FEF76EFC019B30321A55641E94
:101FB00050EA0102F2D1641C019AC4F111031444E5
:101FC0000F9A012A03D0012208430DD10AE00843E9
:101FD00004D000204FF0110B0F9080E7A3EB0B050E
:101FE0006D1E0DE05B4504DD4FF0000205F10105BB
:101FF00004E003DA4FF00002A5F10105002AECD05D
:1020000000980F99C0E90231C0E9004586E7000059
:10201000000024400000F03F300000000000F043CA
:102020000000E03F2DE9FF4F95B09B4689460646EC
:1020300000250FE2252877D100242746F84A012100
:10204000059400E0044316F8013F203B01FA03F039
:102050001042F7D130782A2811D06FF02F03307852
:10206000A0F13002092A16D8059A44F0020402EBC6
:10207000820203EB42021044761C0590EFE759F808
:10208000042B0592002A03DA504244F400540590D0
:1020900044F00204761C30782E2816D116F8010F71
:1020A00044F004042A280DD06FF02F023078A0F1FC
:1020B0003003092B09D807EB870302EB4303C7184A
:1020C000761CF3E759F8047B761C30786C280FD027
:1020D00006DC4C2817D068280DD06A2814D104E0FB
:1020E000742810D07A280FD10DE044F400140AE0CF
:1020F00044F4801401E044F440147278824202D126
:1021000004F58014761C761C307866280BD013DC1E
:10211000582877D009DC002875D04528F6D0462805
:10212000F4D047281AD19DE118E0632835D06428FF
:1021300079D0652812D195E1702873D008DC672822
:10214000F1D069286FD06E280DD06F2806D1B5E088
:1021500073282CD0752875D0782874D05A461799D2
:1021600090476D1C75E1C4F30250022809D0032882
:102170000DD0D9F8001004280DD00D6009F1040924
:1021800067E1D9F80010EA17C1E90052F6E7D9F87B
:1021900000100D80F2E70D70F0E719F8041B8DF8C0
:1021A000001000208DF80100EA46012003E059F8F4
:1021B00004AB4FF0FF3061074FF0000102D40DE097
:1021C00008F101018846B9420FDA8045F8DB1AF8B8
:1021D00008100029F4D108E008F101018846814285
:1021E000FADB1AF808100029F6D105985B46A0EB37
:1021F000080721463846179A00F094FA284400EB65
:10220000080507E04DE029E10DE01AF8010B5A46F8
:1022100017999047B8F10108F7D25B462146384636
:10222000179A13E142E00A220092C4F302524FF0DF
:10223000000A022A08D059F804CB032A4FEAEC71AD
:102240000AD00DE029E02AE009F1070121F0070298
:10225000F2E802C1914609E00FFA8CFC4FEAEC71FA
:10226000042A03D14FFA8CFC4FEAEC71002907DAFB
:102270000A460021DCF1000C61EB02012D2202E094
:10228000220504D52B228DF80420012203E0E20769
:1022900001D02022F7E7904659E00A2102E01022FF
:1022A0000DE010214FF0000A00910BE010224FF0DA
:1022B000000A44F004040827009203E008224FF0CB
:1022C000000A0092C4F30252022A05D059F804CB46
:1022D0000021032A08D009E009F1070121F00702D3
:1022E000F2E802C1914605E01FFA8CFC042A01D1F4
:1022F0000CF0FF0C4FF00008220728D5702806D0FC
:10230000009B83F0100353EA0A0305D00EE040223D
:102310008DF80420012208E05CEA010206D0302298
:102320008DF804208DF8050002229046009B83F072
:10233000080353EA0A030AD15CEA010201D16207E9
:1023400005D530228DF804204FF001087F1E582853
:1023500004D034A003900EA802900DE036A0F9E757
:1023600053466046009AFEF78DFA84460398825CD5
:102370000298401E029002705CEA0100F0D10298BF
:1023800006A9081A00F1200A600702D524F4803457
:1023900000E00127574502DDA7EB0A0000E000201E
:1023A00000EB0A01009005984144401A0590E003B3
:1023B00006D45B462146179A059800F0B3F9054408
:1023C000002706E001A85A46C05D179990476D1C8A
:1023D0007F1C4745F6DBE0030CD55B462146179A88
:1023E000059800F09FF9054404E030205A461799FB
:1023F00090476D1C0099481E00900029F5DC08E00C
:10240000029802995A460078491C02911799904700
:102410006D1CBAF10001AAF1010AF1DC65E10000CE
:1024200009280100303132333435363738396162AA
:10243000636465660000000030313233343536376E
:1024400038394142434445460000000000F058F945
:102450000544761C307800287FF4ECAD19B028468E
:10246000BDE8F08F620700D4062709F1070222F0C9
:10247000070CFCE80223E14603F000485FEA080C81
:1024800002D00FF2702C0DE05FEA045C02D50FF26F
:10249000682C07E05FEAC47C02D00FF2602C01E0F8
:1024A000AFF2700C4FF0FF3823F00043CDF850C06E
:1024B00065280CD006DC452809D046281DD04728C1
:1024C0003DD13DE0662818D067287ED138E0002154
:1024D000112F01DB112000E0781CCDE9000106A9D5
:1024E0000EA8FFF7EDFCDDE90F010E9A0391002124
:1024F000009207F1010A04914DE04FF0004000976F
:10250000CDE9011006A90EA8FFF7DAFCDDE90F02FC
:1025100003920E9B11990022DDF80CA00093049207
:1025200011B9791C00EB010AB7EB0A0004D4C0F121
:10253000FF3007F1010A0490AAEB0700019044E084
:10254000012F00DA01270021112F01DD112000E009
:102550003846CDE9000106A90EA8FFF7B1FCDDE978
:102560000F010E9A0391002104910092BA462107AF
:102570000CD40399514500DA8A46BAF1010F05DD02
:10258000009AAAF10101515C302908D0B84202DA60
:1025900010F1040F06DA0121CDE9011015E0AAF1CE
:1025A0000101E9E7002805DC049901440491AAEB44
:1025B000000102E0411C514500DD8A460499401AA1
:1025C000401C01904FF000400290200704D4019875
:1025D000504501DBCDF8048000208DF84F000298B3
:1025E0000DF14F07B0F1004F25D02B200E9002982F
:1025F0004FF0020800280CDA404202902D200E9085
:1026000007E00A210298FEF727F93031029007F817
:10261000011DB8F10001A8F10108F2DC02980028C0
:10262000EFD1791E0E980870307800F0200040F04D
:10263000450007F8020D12A8C01B00F10708149806
:10264000007800B1012000EB0A01019801EBE07174
:1026500005984144401A401E0590E00306D45B46AD
:102660002146179A059800F05DF805441498007803
:1026700018B15A46179990476D1CE00324D55B4664
:102680002146179A059800F04DF805441CE004987F
:10269000002807DBDDE90301884203DD0098405C88
:1026A000179901E0179930205A469047049805F190
:1026B0000105401C04900198401E019004D12E2079
:1026C0005A46179990476D1CBAF10001AAF1010A08
:1026D000DDDC05E017F8010B5A46179990476D1C91
:1026E000B8F10001A8F10108F4DC5B462146179A15
:1026F0000598ABE62D0000002B0000002000000034
:102700002DE9F041044600251E461746880404D4EE
:1027100005E039462020B0476D1C641EF9D52846D7
:10272000BDE8F0812DE9F041044600251E469046A3
:10273000C80301D5302700E02027880404D505E030
:1027400041463846B0476D1C641EF9D52846BDE8A1
:10275000F0810A68531C0B601070704700207047AE
:102760002DE9F04107464FF000087E2902DD7E2169
:10277000002001E0002002E007F80080401C4E1E0F
:10278000B042F9DB002408E03D551149284600F02D
:10279000BDFB0F48002000BF641CB44209DA00F002
:1027A0005FFDC5B2681C0ED00A2D06D00D2DEBD1F1
:1027B00003E00A2D01D00D2D05D10D203855641CE4
:1027C0000A203855641C07F80480BDE8F081000039
:1027D0003800002010B50448FFF73AFB034904A075
:1027E000FEF7F4FE002010BD444600080444000833
:1027F000726F6F740000000010B5D0E9044300222E
:102800009C4207D0C35C0B70017D491C01F00F0195
:10281000416101E04FF0FF32104610BD10B56FF07E
:102820000400FFF703F9094809490068B0FBF1F01B
:10283000C1B2084801EB41020170C2EBC1114FF671
:10284000FF7202EAC101418010BD00004800002073
:1028500000127A00140000200B49498848434FF0C9
:10286000E021486100228A61086940F001000861A6
:102870000869C30701D0C003FAD5086920F0010038
:1028800008618A6170470000140000202DE9FC41B6
:102890000646154600270846FDF7CAFD04460121F5
:1028A0001C20FEF749FF0120A040ADF80400287865
:1028B000492815D04F2801D0692811D05FF01000A9
:1028C0008DF8070003208DF80600307861280ED0BF
:1028D00008DC41280BD042280CD043280ED119E047
:1028E0004820EDE7622805D0632807D112E001A94E
:1028F0000A4801E001A90A48FEF70AFEBDF80400F3
:1029000000902B462246314606A0FFF7A1FA384632
:10291000BDE8FC8101A90A48EEE70000000801407B
:10292000000C01400D0A5B25735D5B70696E3A25F2
:10293000645D5B25735D5B253038785D0D0A0000B2
:102940000010014070B500252C460BA0FFF780FA5F
:10295000104E200703D114B10FA0FFF779FA315DB3
:102960000EA0FFF775FA641CFF2CF2DD0DA0FFF737
:102970006FFA284670BD00000D0A4652414D3A429A
:1029800055463A3D3D3D2073746172743D3D3D0DA9
:102990000A0000007C0200200D0A00002530327879
:1029A000200000000D0A4652414D3A4255463A3D3C
:1029B0003D3D20656E64203D3D3D0D0A0000000058
:1029C00030B5036945695C1C002204F00F04A54280
:1029D00006D0C154017C491C01F00F01016101E0E6
:1029E0004FF0FF32104630BD38B500252C466A4600
:1029F00007A10095FDF75AFC0099074AC8B2105587
:102A0000641CFF2CFBDD05A0FFF722FA284638BD29
:102A100030782578000000007C0200200D0A465224
:102A2000414D3A4255463A5041545445524E3A303F
:102A30007825780D0A00000070B5074D0446402146
:102A40002846FFF767F90028F9D0E1B22846FFF7DA
:102A5000F9F9204670BD00000038014070B50D4600
:102A6000044602E02946FFF7E7FF14F8010B0028AF
:102A7000F8D170BD10B500231A46034903A0FEF734
:102A8000ADFD002010BD0000304500086672616D8C
:102A90000000000070B5054600260846FDF7C8FC9A
:102AA000044629780023012061290CD006DC412945
:102AB00009D042290BD043290FD115E0622906D055
:102AC00063290AD110E0A04081B2094802E0A04089
:102AD00081B20848FEF76DFD03462246294606A04E
:102AE000FFF7B6F9304670BDA04081B20848F1E763
:102AF00000080140000C01400D0A5B25735D5B700E
:102B0000696E3A25645D5B25645D0D0A0000000076
:102B10000010014010B500231A46034903A0FEF738
:102B20005DFD002010BD0000404400086770696F23
:102B30000000000010B5002400F01CFC03490870E0
:102B4000014603A0FFF784F9204610BD6000002075
:102B50000D0A4652414D3A53523A307825780D0AC3
:102B6000000000000021416101610A468161425478
:102B7000491C1029FBDB704781070CD16421B0FB95
:102B8000F1F201FB120141B94FF4C871B0FBF1F24F
:102B900001FB120008B100207047012070470000BF
:102BA0002DE9F05F07461C4615464FF0000A08461F
:102BB000FDF73EFC80462846FDF73AFC05462046D8
:102BC000FDF736FC06460024DFF8A0B04FF00109FF
:102BD00041E0387861280CD006DC412809D0422831
:102BE0000CD0432810D11DE0622807D063280BD1F8
:102BF00018E009FA08F081B2584603E009FA08F033
:102C000081B21B48FEF7DCFCA8B2FFF725FE38783E
:102C1000612811D00BDC41280ED0422811D0432866
:102C200015D11DE009FA08F081B21248EAE76228DE
:102C300007D063280BD113E009FA08F081B2584697
:102C400003E009FA08F189B20948FEF7BBFCA8B213
:102C5000FFF702FE641CB442BBDB5046BDE8F09FA8
:102C600009FA08F081B20348EFE7000000080140CC
:102C7000000C0140001001407FB5FEF7C0FCFFF7DB
:102C8000CDFD00F023FD4FF4E13000F0F5FA00F047
:102C900055FC40F60F6141F28730FEF715FF00F05A
:102CA000FDFB00F033FE25A0FFF7D2F8612C02D126
:102CB00022A0FFF7CDF8002264210A2001F012F9CA
:102CC0002349002402254860CDE90054029423469C
:102CD000642220A12148039401F058FACDE9005460
:102CE0000294002364221EA11F48039401F04EFAAF
:102CF000CDE900540294002364221CA11D480394D2
:102D000001F044FA0320CDE9000402940023642278
:102D100019A11C48039401F039FA0420CDE90004FC
:102D2000029400234FF4FA7217A11948039401F09A
:102D30002DFA00F099FF04B0002070BD77656C6338
:102D40006F6D20746F6D207775210D0A00000000F3
:102D5000400000205461736B31000000AD3A000860
:102D60005461736B32000000ED3A00085461736BDC
:102D7000330000002D3B00085553415254314F554C
:102D800054000000411C000869646C6500000000EC
:102D90006D3B00080020704770B50B4C054620685D
:102DA0004560E0682168854205D2A06BBDE87040AF
:102DB000091D00F008BE606B091D00F004FE206BC9
:102DC000854200D2256370BD8000002070B5124E90
:102DD000124C1AE000F06AFF3068D0B101F0B4FA8A
:102DE00000F018FEF068C568281D00F0CBFDA06853
:102DF000401EA0606068401E606000F019FE286BF5
:102E000000F020FE284600F01DFE60680028E1D199
:102E100070BD01F099FAF8E71C48002080000020FE
:102E200030B403680D46002B0CD0026CC1688C18BE
:102E3000C46041688C4200D3C360C168284630BC7E
:102E4000FDF7D4B930BC704710B51346026C044688
:102E50006AB183B1E068FDF7C9F9E168206C091A2D
:102E6000E1602268914202D26168081AE060A06BBA
:102E7000401CA06310BDA068FDF7B8F9216CA068E4
:102E80000844A06061688842F1D32068A060EEE742
:102E9000044C00BFFFF79AFF20680128FAD900F020
:102EA000F9FDF7E77C47002070B5044600F0B2FD5D
:102EB00004F124050AE0606A58B1284601F018FAC6
:102EC00008B100F0A5FEA06C401EA064A06C002814
:102ED000F1DC4FF0FF36A66400F0AAFD00F09AFD89
:102EE00004F110050AE0206958B1284601F000FA03
:102EF00008B100F08DFE606C401E6064606C0028BC
:102F0000F1DC6664BDE8704000F092BDFFF794BD4F
:102F10002DE9F0410446002500F0C8FE274A02F1E1
:102F20000801506801F1080368B92548002720F01E
:102F30000700C1E9000744F2F836C3E90076C0E9AA
:102F400000360120506044F2F73094B31034660725
:102F500004D004F00706C6F108063444661E864213
:102F600027D216480968083001E0084631464E6805
:102F7000A64202D20E68002EF7D1994219D00568F8
:102F80000B68036048681035001B20280DD90B1909
:102F900058600A484C6008305E6800E020460468CB
:102FA0006768B742FAD31C60036048681168081A62
:102FB000106001F0C9F92846BDE8F08164000020E6
:102FC0008403002010B5031F4FF080741C601B1F8A
:102FD0001960191F00230B60143940380A6010BDB6
:102FE0007CB500240D46ADF80440ADF8004001AAC0
:102FF00010A1FDF75BF96A4610A12846FDF756F9C6
:10300000BDF800104FF48070814201D9ADF8000086
:10301000BDF80420BDF80010094800F087F9BDF89C
:103020000020BDF8041007A0FEF712FFFFF78AFC8E
:1030300020467CBD30782578000000002564000023
:103040007C0200200D0A4652414D3A4255463A5202
:103050004541443A20414452203A20307825782096
:103060004C454E3A2564200D0A0000002DE9F04140
:10307000002621A0FEF7ECFE0A2000F02DFCFDF753
:10308000AFFB4FF066321D4BFDF7C4FAFDF7C8FBEE
:10309000FDF7B3FB1A4A1B4BFDF7B9FA1A4A1B4B53
:1030A000FDF72AFB00221A4BFDF70DFAFDF7B8FBDE
:1030B00007460A21012000F0D5F90446FDF78BFBF5
:1030C0001449FDF7C2F96FF00B01FDF7F0F9054661
:1030D0003846FDF792FB02460B460FA0FEF7B8FEFE
:1030E0002846FDF78AFB02460B4621460EA0FEF756
:1030F000AFFE3046BDE8F0810D0A000066664A3F2B
:10310000E17A14AE47E1F63F22FDF675E09C713F8F
:103110000000394033335340544144433A205B5418
:103120003A25665D0D0A00004144432020205B5291
:103130003A25645D5B413A25665D0D0A000000009A
:103140007FB5084900240D7ACB798A7988888DE883
:103150002D008B784A78097803A0FEF779FE04B039
:10316000204670BDE40000205B25643A25643A25C2
:10317000645D5B25642D25642D25645D5B573A25D0
:10318000645D090A0000000070B505460024084689
:10319000FDF74EF92A780121612A0CD006DC412A7C
:1031A00009D0422A0BD0432A0ED10FE0622A06D062
:1031B000632A09D10AE0814089B2064802E08140D1
:1031C00089B20548FEF7FCF9204670BD814089B2FE
:1031D0000248F7E700080140000C014000100140E0
:1031E00010B50024054A06A1FDF760F803480078F1
:1031F00000F00AF9FFF79EFC204610BD6000002099
:10320000307825780000000070B505460024084697
:10321000FDF70EF92A780121612A0CD006DC412A3B
:1032200009D0422A0BD0432A0ED10FE0622A06D0E1
:10323000632A09D10AE0814089B2064802E0814050
:1032400089B20548FEF7BEF9204670BD814089B2BB
:103250000248F7E700080140000C0140001001405F
:1032600008B569460348FFF7C7FA401CF9D09DF836
:10327000000008BDC4000020F0B5054687B001215C
:1032800044F20400FEF758FA254E3046FEF708FDDA
:103290007015ADF8100003248DF812401820214F4E
:1032A0008DF8130004A93846FEF732F93015ADF851
:1032B000100004208DF8130004A93846FEF728F901
:1032C0000021ADF80810ADF804100C20ADF8061080
:1032D000ADF80C10ADF80A00009569463046FEF7CF
:1032E00057FD25208DF814008DF815408DF81640F7
:1032F00001208DF8170005A8FEF7BAF9012240F267
:1033000025513046FEF72CFD01213046FEF7BEFC6C
:103310000548FFF727FC0448C56107B0F0BD000071
:103320000038014000080140C40000202DE9F041B0
:103330000F4E0746002014460D46C6F8B001032084
:1033400000F096FA200A00F093FAE0B200F090FA4A
:10335000002405E0FF2000F08BFA3855641CA4B26D
:10336000AC42F7D30120C6F8B001BDE8F0810000FF
:103370000080214210B5074C0020C4F8B0010520A0
:1033800004F5D87400F074FAFF2000F071FA0121FE
:10339000216010BD008021422DE9F047194C002525
:1033A00016460F468146C4F8B051062004F5D8747D
:1033B00000F05EFA4FF00108C4F80080256002209A
:1033C000A4F5D87400F054FA300A00F051FAF0B2C3
:1033D00000F04EFA002605E019F8060000F048FA61
:1033E000761CB6B2BE42F7D34646C4F8B081C4F8E4
:1033F000B051042004F5D87400F03AFA2660BDE814
:10340000F08700000080214270B5084C054600207E
:10341000C4F8B001012004F5D87400F029FA284658
:1034200000F026FA0120206070BD000000802142DB
:1034300010B50B4C0146072301222046FDF730FE54
:1034400001212046FDF76BFE02212046FDF7F6FD27
:103450000028F9D02046BDE81040FDF7ECBD000083
:10346000002401402DE9F04100260D4607460A29B7
:1034700002D30A25002401E0002408E03846FFF7C3
:10348000D7FF06440520FFF7E7F9641CE4B2AC421D
:10349000F4D3B6FBF5F080B2BDE8F08130B587B06B
:1034A00001214FF40170FEF747F901214C0220463B
:1034B000FEF74EF900212046FEF74AF9A001FEF77B
:1034C00019F90220ADF8140000248DF8174005A961
:1034D0001848FEF71DF8184D2846FDF783FD4FF4F8
:1034E0006020CDE9020401208DF804408DF8100021
:1034F00000948DF8054069462846FDF7ADFD012191
:103500002846FDF764FD2846FDF704FE2C462046BC
:10351000FDF79BFD0028FAD12046FDF70AFE204664
:10352000FDF782FD0028FAD101212046FDF7F7FDC5
:1035300007B030BD0008014000240140F8B5002468
:1035400001210420FEF7F8F810208DF80300032075
:103550000F4E104F8DF8020006EB04152879412814
:1035600011D12889ADF8000069463846FDF7D0FF33
:10357000E8680028288981B2384602D0FEF722F890
:1035800001E0FEF71DF8641C022CE5DBF8BD00002D
:1035900018000020000801402DE9F0474648008847
:1035A0004549091D0988DFF8148101EB0047B7FB85
:1035B000F8F44348434D0188A14231D0048040F2E1
:1035C000B2764FF4B77A4FF4B6790FE03046FFF792
:1035D000D3FA38B1544502D3A4F5B77404E0761C8D
:1035E000B6B205E0A4F26D14761CB6B24C45EDD827
:1035F000AE800026DFF8D0900CE0A888FFF7BCFA78
:1036000008B1012E47D019F80600A04204D8241AA8
:10361000761CB6B21C2CF0D2761CAE71641CEC7118
:10362000B7FBF8F108FB11704FF46161B0FBF1F2E8
:103630002A70B0FBF1F201FB12033C22B3FBF2F360
:103640006B70B0FBF1F301FB1301B1FBF2F002FB75
:103650001010A870A888AA79EB796424B0FBF4F163
:10366000B0FBF4F6C9B204FB1600132901D964308B
:10367000C0B200EB90010724B1FBF4F604FB161175
:10368000114E19440C3E1644800716F8016C314463
:1036900089B204D007E01D2CBED31D3CB8E7032A35
:1036A00001D2491E89B2B1FBF4F004FB101028725C
:1036B0000020BDE8F087000018280040805101007C
:1036C0003C000020E4000020F84300087CB5002402
:1036D0000420FDF74BFD45F250060025B04245D0D1
:1036E00001214FF0C050FEF70FF80120FDF7FCFF5D
:1036F000FDF732FD0120FEF79DF804E0641CE4B202
:103700000A20FFF7A9F84120FEF77CF80028F5D041
:10371000FA2C01D301207CBD4FF48070FEF7A0F895
:103720000120FEF797F8FEF70DF9FEF713F90121D6
:103730000846FEF7DBF8FEF705F9FEF7A1F847F6B5
:10374000FF70FEF7EFF8FEF7FDF83720CDE90050E7
:103750000A23182205214FF4FC6000F021F8FEF73F
:1037600097F831460420FDF709FD07E0FEF7F2F86F
:1037700001210846FEF7BAF8FEF7E4F803208DF8B9
:1037800000008DF801508DF8025001208DF80300E3
:103790006846FDF76DFFFFF7FFFE00207CBD0000CF
:1037A0002DE9F05F06460024A0F2B2709B469246D7
:1037B0008946822802D30120BDE8F09F40F2B2750D
:1037C000274FDFF8A08008E02846FFF7D5F908B1B9
:1037D0003C4400E044446D1CADB2B542F4D3A9F1C1
:1037E0000100C7B20025DFF88080DFF880900FE08D
:1037F00018F8050040F2A321484304EBC0143046FA
:10380000FFF7BAF910B1012D00D14C446D1CADB2D7
:10381000BD42EDD340F2A3210AFB01F0134904EBB2
:10382000C01049420844CBEB4B12C2EB0B2100EB1A
:1038300001100A99C1EB011100EB81000B994418AA
:1038400001214FF0C050FDF75FFF0120FDF74CFF55
:103850002046FEF757F8FEF775F80020ACE70000A9
:103860000085E2018033E101F84300088051010046
:1038700070B50B4C054602212046FEF777F800286C
:10388000F9D029462046FEF77AF801212046FEF7B6
:103890006DF80028F9D02046FEF76FF8C0B270BD71
:1038A0000038004010B50B4C01460723012220468A
:1038B000FDF7F6FB01212046FDF731FC02212046F1
:1038C000FDF7BCFB0028F9D02046BDE81040FDF70D
:1038D000B2BB00000024014070B500250446142846
:1038E00002DD1424002601E0002609E01020FFF785
:1038F000D9FF284485B20520FEF7AEFF761CF6B24C
:10390000A642F3DB95FBF4F080B270BD10B586B033
:1039100001214FF40170FDF70FFF4FF40040FDF758
:10392000E9FE174C2046FDF75DFB00214FF46020B7
:10393000CDE902018DF80410012000918DF80510E9
:103940008DF8100069462046FDF786FB0120FDF743
:10395000F5FB01212046FDF73AFB2046FDF7DAFB97
:103960002046FDF772FB0028FAD12046FDF7E1FB67
:103970002046FDF759FB0028FAD106B010BD000023
:1039800000240140D0E901128A60D0E9011251609F
:1039900001694A68824201D182684A60002202615C
:1039A0000868401E08600868704700F108014FF081
:1039B000FF32C0E90112C16001610021016070475E
:1039C00000210161704710B50B685A1C02D000F14C
:1039D000080202E0026904E05268546824689C42CC
:1039E000FAD953684B6099608A6051600861016838
:1039F000491C016010BD426853684B6043688B608E
:103A0000536899605160416008610168491C016018
:103A10007047000010B5FCF7CDFB04480168491C55
:103A20000160BFF34F8FBFF36F8F10BD7C0000208C
:103A300003490868401E086001D1FCF7C2BB70470B
:103A40007C00002010B5002817D0A0F1100400F071
:103A50002DF90A48616800E01046026853688B42FD
:103A6000FAD322600460054861680838026811448E
:103A70000160BDE8104000F067BC10BD6C00002084
:103A80004FF0E020024941610721016170470000C9
:103A90003F19010004494FF080500860BFF34F8F79
:103AA000BFF36F8F7047000004ED00E008B50025FC
:103AB000084C6E1E0023324607A1606800F0D6FA5B
:103AC0002846009501E0401C009021688842F1D210
:103AD000F9E70000400000205468697320697320F2
:103AE0007461736B203120210A00000008B50025A5
:103AF000084C6E1E0023324607A1606800F0B6FA3B
:103B00002846009501E0401C009021688842F1D2CF
:103B1000F9E70000400000205468697320697320B1
:103B20007461736B203220210A00000008B5002563
:103B3000084C6E1E0023324607A1606800F096FA1A
:103B40002846009501E0401C009021688842F1D28F
:103B5000F9E7000040000020546869732069732071
:103B60007461736B203320210A000000FEF732BE1F
:103B70002DE9F041244CE06920B1206A401C20620C
:103B8000BDE8F081E068401CE060E0684FF0FF3580
:103B900070B9606BA16B6163A063A06A401CA062F6
:103BA000606B0068A8B1606BC068C0684068206343
:103BB000E068216B8842E3D3144F606B006850B11A
:103BC000606BC068C668E1687068814205D2206396
:103BD000D6E72563ECE72563D2E7301DFFF7D2FE79
:103BE000B06A18B106F11800FFF7CCFEF06A6169FF
:103BF000884200D9606100EB800007EB8000311D36
:103C0000FFF7F9FED9E70000800000207C47002084
:103C100001490120486270478000002070B50C4DBA
:103C20000C4629681831FFF7CEFE2868001DFFF703
:103C3000A9FE601C05D0E8682044BDE87040FFF78D
:103C4000ABB82968BDE870400248091DFFF7D3BE34
:103C5000800000203048002002498A6A0260C9685A
:103C600041607047800000201FB50024009401943B
:103C700002942346802209A10A48039400F086FAA0
:103C8000012809D1FCF796FA074801218161C46037
:103C9000BDE81F4000F0FEB81FBD000049444C4580
:103CA00000000000912E0008800000200248C16939
:103CB000491CC16170470000800000201048C269A3
:103CC000104922B1012141627047521E426142698E
:103CD00002EB820251F82220002A4269F5D002EB61
:103CE000820201EB82014A68526801F108034A60CE
:103CF0009A4201D152684A60D16801607047000061
:103D0000800000207C4700207CB500240D46ADF8E3
:103D10000440ADF8004001AA0FA1FCF7C7FA6A46BB
:103D20000FA12846FCF7C2FABDF800104FF48070CE
:103D3000814201D9ADF80000BDF80420BDF80010A3
:103D40000848FFF729FBBDF80020BDF8041006A0C5
:103D5000FEF77EF820467CBD307825780000000014
:103D6000256400007C0200200D0A4652414D3A4273
:103D700055463A57524954453A20414452203A2038
:103D800030782578204C454E3A2564200D0A0000F5
:103D900038B500246A4607A10094FCF787FA00981A
:103DA00081B20548FDF7FBFE04A00099FEF750F82C
:103DB000204638BD256400000004004050574D20C7
:103DC000205B25645D0D0A002DE9F04389B0904623
:103DD000DDE9105689461F46002403AA20A1FCF7FE
:103DE00065FA04AA1EA14846FCF760FA05AA1CA1C0
:103DF0004046FCF75BFA06AA19A13846FCF756FACA
:103E000007AA17A12846FCF751FA08AA14A13046C0
:103E1000FCF74CFA9DF820109DF81C00CDE900013C
:103E20009DF818309DF814209DF81010BDF80C0076
:103E3000FFF7B6FC9DF818009DF820209DF81C1097
:103E40008DE807009DF814309DF81020BDF80C1087
:103E500004A0FDF7FDFF09B02046BDE8F083000097
:103E6000256400005254435B593A25645D5B4D3A2A
:103E700025645D5B4D3A25645D5B443A25645D5B7A
:103E8000683A25645D5B6D3A25645D5B733A256431
:103E90005D0D0A00094810B5016841F47F01016019
:103EA000016841F07F410160FFF7EAFD044900200D
:103EB0000860FCF757F9002010BD000020ED00E07D
:103EC0007C000020064910B54FF080500860FCF7D8
:103ED00071F9FFF74DFEBDE810400020FCF771B905
:103EE00004ED00E02DE9F0410F4605004FF000061B
:103EF00016D04C20FFF70CF8040011D005FB07F09A
:103F0000401CFFF705F8206038B1C4E90F570121C4
:103F1000204600F07BF8264602E02046FFF792FD9F
:103F20003046BDE8F0812DE9FF41002582B01E46F4
:103F3000884604462F46FFF76DFDA06B10B341463F
:103F40002046E568FEF76CFF7EB1E560606A30B13F
:103F500004F1240000F0CCF908B1FFF79BFDFFF756
:103F600067FD012006B0BDE8F081A06B401EA06394
:103F700020690028F3D004F1100000F0B9F90128FD
:103F8000EBD0ECE7049808B11DB106E0FFF750FD57
:103F90001DE06846FFF760FE0125FFF749FDFFF7CA
:103FA00085FEFFF737FD606C401C00D16764A06C94
:103FB000401C00D1A764FFF73BFD04A9684600F050
:103FC000BFF830B12046FEF76FFF00F0BDF90020CA
:103FD000C8E7FFF71FFDA06B38B1FFF729FD2046AA
:103FE000FEF762FF00F0B0F9A5E7FFF721FD04F14D
:103FF00024000499FFF712FE2046FEF755FF00F05B
:10400000A3F9002897D1FFF745FD94E770B50D4659
:104010000446FFF7FFFCD4E90F12206801FB020001
:1040200060600020A0632068A0600146E06B401E35
:1040300000FB0210E0604FF0FF306064A06404F108
:1040400010004DB1FFF7B1FC04F12400FFF7ADFC07
:10405000FFF7EEFC012070BD21690029F8D000F0C7
:1040600047F90128F4D1FFF715FDF1E72DE9FF41EC
:10407000002582B01E46884604462F46FFF7CAFC3C
:10408000A06BE16B884214D2324641462046FEF7CF
:10409000DBFE606A38B104F1240000F029F9012840
:1040A00001D1FFF7F7FCFFF7C3FC012006B0BDE824
:1040B000F081049808B11DB106E0FFF7B9FC1DE0DE
:1040C0006846FFF7C9FD0125FFF7B2FCFFF7EEFDDB
:1040D000FFF7A0FC606C401C00D16764A06C401C22
:1040E00000D1A764FFF7A4FC04A9684600F028F8F3
:1040F00030B12046FEF7D8FE00F026F90020D5E7C3
:10410000FFF788FCA06BE16B884210D1FFF790FCB1
:1041100004F110000499FFF781FD2046FEF7C4FE6C
:1041200000F012F90028A9D1FFF7B4FCA6E7FFF7C9
:104130007FFC2046FEF7B8FE00F006F99EE700007F
:1041400070B50D460446FFF765FC2868411C14D085
:104150000D4A2168936A994203D06168D3689942F5
:104160000DD96168D3685B1A834208D2D268511AAC
:10417000401A28602046FFF76FFD002400E001246C
:10418000FFF756FC204670BD800000202DE9FF5F40
:104190009B46DDE90E6815468A464420109FFEF7CF
:1041A000B7FE04004CD0A8008146EFB33846206328
:1041B000D8B3A5224946FCF72BF86FF0030101EBB9
:1041C0008501206B3546084420F007075146102230
:1041D00004F13400FCF72EF8002084F84300052D8C
:1041E00000D30425201DE562FFF7EAFB04F1180067
:1041F000FFF7E6FB2461C5F105016462A1615A463F
:1042000038460099FEF7DEFE2060B8F1000F01D0BD
:10421000C8F80040FFF7FEFB334DA868401CA860BB
:104220002868DFF8C88001E004E006E058B1A8691A
:1042300088B336E0FEF76CFEB9E72046FFF702FCD4
:104240004FF0FF344BE02C60A868012829D10027EB
:1042500007EB870108EB8100FFF7A7FB7F1C052F09
:10426000F6D322486430FFF7A0FB20487830FFF7F0
:104270009CFB1E488C30FFF798FB1C48A030FFF7D2
:1042800094FB1A48B430FFF790FB18486430686319
:104290001430A86305E0FFE72868C06AB04200D880
:1042A0002C60E06A2969884200D92861E96A491CC2
:1042B000E9626969884200D9686100EB800108EB16
:1042C0008100211DFFF797FB0124FFF7B1FBA869CF
:1042D00028B12868C06AB04201D2FFF7DBFB04B006
:1042E0002046BDE8F09F0000800000207C470020B1
:1042F00070B5C068C46804F118000646FFF742FBB9
:104300000F4DE86910B131460E480EE0201DFFF751
:1043100039FBE06A6969884200D96861094900EBA4
:1043200080008C3901EB8000211DFFF764FBE06AFF
:104330002968C96A884201D3012070BD002070BD80
:1043400080000020084800202DE9F0470026FFF7F4
:1043500061FB244CE069401EE061E06998BBA06805
:1043600088B3DFF884800025A8F18C091AE0C068C2
:10437000C76807F11800FFF705FB381DFFF702FBC0
:10438000F86A6169884200D9606100EB800109EB3D
:104390008100391DFFF72FFBF86A2168C96A88423E
:1043A00000D30125D8F8001040460029DFD1206A4B
:1043B00028B909E0FFF7DCFB206A401E2062206A72
:1043C0000028F7D104E008E015B9606A012804D19B
:1043D000002001266062FFF75DFBFFF729FB3046F6
:1043E000BDE8F08780000020084800200003030695
:1043F00001040602050003051F1C1F1E1F1E1F1FB0
:104400001E1F1E1F152B000800000000104800088A
:104410002447000808470008752A0008000000002B
:104420001C47000824470008F4460008000000006C
:10443000000000000000000000000000000000007C
:10444000952D000800000000E447000824470008FC
:104450009C4700088D280008030000003048000831
:1044600020480008F8470008093200080200000050
:1044700048480008EC4700086847000889310008F0
:104480000200000040480008EC4700085C470008B4
:10449000952A00080200000034480008EC47000894
:1044A0000C4800086D30000801000000B847000803
:1044B000B047000834470008913D000801000000A3
:1044C000C8470008B047000848470008A12B00086B
:1044D0000400000018480008D047000824470008DE
:1044E0004131000800000000B447000824470008DC
:1044F00028470008C93D00080600000038480008A9
:1045000074470008284700085D27000800000000E5
:10451000C047000824470008844700080000000046
:10452000000000000000000000000000000000008B
:10453000352B000800000000C84800082447000888
:104540004C480008E131000801000000484800081C
:10455000E448000860480008E12F0008020000005D
:10456000B8470008B84800086C480008093D000832
:1045700002000000C8470008B84800088C4800083E
:10458000E929000801000000B0480008C048000800
:10459000D84800084529000800000000D04800085D
:1045A00024470008E8480008000000000000000060
:1045B000000000000000000000000000004040403B
:1045C00040404040404041414141414040404040E6
:1045D0004040404040404040404040404005020292
:1045E0000202020202020202020202020220202051
:1045F00020202020202020020202020202029090AD
:1046000090909090101010101010101010101010AA
:1046100010101010101010100202020202028888FE
:10462000888888880808080808080808080808080A
:1046300008080808080808080202020240000000F2
:10464000BD4500080D0A0D0A2A2A2A2A2A2A2A2AE2
:104650002A2A2A2A2A2A2A2A2A2A2A2A2A2A2A2ABA
:104660002A2A2A2A2A2A2A2A2A2A2A2A2A2A2A2AAA
:104670002A2A2A2A2A2A2A2A2A2A2A2A2A2A2A2A9A
:104680002A2A2A2A2A2A2A2A2A2A2A2A2A2A2A2A8A
:104690002A2A2A2A0D0A2A20636F6E736F6C653AE4
:1046A000200D0A2A2A2A2A2A2A2A2A2A2A2A2A2AB1
:1046B0002A2A2A2A2A2A2A2A2A2A2A2A2A2A2A2A5A
:1046C0002A2A2A2A2A2A2A2A2A2A2A2A2A2A2A2A4A
:1046D0002A2A2A2A2A2A2A2A2A2A2A2A2A2A2A2A3A
:1046E0002A2A2A2A2A2A2A2A2A2A2A2A2A2A2A0D47
:1046F0000A0D0A00207375626D656E75206F662065
:104700004652414D20200000207375626D656E7524
:10471000206F66204750494F202000006672616D6F
:104720000000000000000000726561642072746384
:104730002000000072656164206164632063686129
:104740006E6E656C2000000077726974652070776A
:104750006D206368616E6E656C2000007265736524
:1047600074206770696F2000736574206770696FCB
:104770002000000079206D20642068206D207320C7
:1047800000000000636C6F73652064657669636583
:10479000206472697665722E000000006F70656E8D
:1047A00020646576696365206472697665722E009F
:1047B000747C6100727463007265616400000000C3
:1047C000636C6F73650000007772697465000000A8
:1047D000706F72742070696E2064656C79206E75DC
:1047E0006D0000006F70656E00000000706F7274E5
:1047F0002070696E00000000736574206770696F37
:1048000020646972656374696F6E00006765742067
:104810006770696F000000006C6F6F70000000002F
:10482000706F72742070696E2064697200000000FD
:104830006469720067657400727463736574000064
:104840007265736574000000736574006469737049
:104850006C617920465245414D20535220000000A2
:10486000736574204652414D205352007265616455
:10487000206279746573206F6620646174612066BC
:1048800072616D5B6164725D000000007772697433
:10489000656279746573206F66202064617461209D
:1048A000746F206672616D5B6164725D0000000070
:1048B00066696C6C00000000616472206C656E00BB
:1048C0007061747465726E00696E666F000000003E
:1048D000646973700000000066696C6C2062756624
:1048E0006665720073720000646973706C61792090
:1048F00062756666657220636F6E74656E74000023
:104900002049000800000020C4000000A01E00088C
:10491000E4490008C4000020844B0000B01E0008D9
:10492000020406080000000001020304010203045F
:104930000607080900000000000000004100000018
:1049400040000000000000000100000041000000E5
:1049500080000000000000000000000000000000D7
:10496000FFFF00000000000000A24A040000000059
:10497000000000000102030406070809000000000F
:1049800000000000F84300000000000000000000EC
:10499000000000000000000000000000AAAAAAAA6F
:1049A0000000000000000000000000000000000007
:1049B00000000000000000000000000000000000F7
:1049C00000000000000000000000000000000000E7
:1049D000FFFFFFFF000000000000000000000000DB
:0449E00000000000D3
:0400000508000131BD
:00000001FF
